:020000040800F2
:10200000D84700202999000831990008359900081F
:10201000399900083D990008419900080000000026
:1020200000000000000000000000000045990008CA
:1020300049990008000000004D99000851990008D6
:1020400055990008599900085D99000861990008A0
:1020500065990008699900086D9900087199000850
:1020600075990008799900087D9900088199000800
:1020700085990008899900088D99000891990008B0
:1020800095990008999900089D990008F93D000864
:10209000593E0008A9990008AD990008B1990008B7
:1020A000B5990008B9990008BD990008C1990008C0
:1020B000C5990008C9990008CD990008D199000870
:1020C000D5990008D9990008DD990008E199000820
:1020D000E5990008EB3E0008ED990008F199000829
:1020E000F5990008F9990008FD99000870B502F00B
:1020F0000F030F24082908D28D000668AC4026EA99
:102100000404AB402343036009E0A1F10805AD00DE
:102110004668AC4026EA0404AB4023434360930680
:1021200007D5012303FA01F1D20601D5016170BD83
:10213000416170BD70B582B000F075F80121DFF823
:10214000900A00F066FCDFF88C0ADFF88C1A016058
:10215000DFF8881A41602A2000F05FF8022000F0C2
:1021600056FA142000F059F88DF802008DF803009B
:1021700000A800F045FB132000F04FF8002000F00D
:1021800046FADFF85C4A0422082100F0CAF9DFF8B9
:10219000540A00210160382200F0C2F9DFF8485AE1
:1021A0004FF480462E6103220E212846FFF79EFF42
:1021B0004FF4004028612020206103220F2128468F
:1021C000FFF794FF0322052100F0ABF96E610022B6
:1021D000002100F0A6F900F0D4F8DFF8D80B016870
:1021E00021F002010160016841F004010160016811
:1021F00049084900016000218160DFF8BC0BDFF86D
:10220000BC1B016202220A72DFF8CC2C426201F28E
:102210001C0181621068804773BD8DF800000120A9
:102220008DF80100704738B5DFF8B04C206840F0F9
:10223000010020606068DFF8881B0840606020684B
:10224000DFF8801B084000F067F8606820F4FE00AB
:1022500060604FF41F00A060206820F4803000F020
:102260005BF8206840F4803020600020009031202E
:1022700000F06EFC0099491C00910099B1F5A06F27
:1022800001D00028F3D0DFF8405B312000F060FC83
:10229000A8B3DFF84C0C016821F01001016001685F
:1022A00041F010010160016801F0380141F00201C4
:1022B0000160606820F0F0006060606820F46050A9
:1022C0006060606820F4E06040F480606060606896
:1022D00020F47C1040F488106060012028603920D0
:1022E00000F036FC0028FAD060688008800040F0DA
:1022F000020060606068C0F381000228FAD100200B
:10230000A86701210D2000F0FBFB01214FF4000024
:10231000BDE8344000F0FEBB2060206820F480203F
:1023200020607047F8B5069D079CDFF8B86B002762
:1023300037807180B780F58034814FF400717181EE
:10234000B281F38101213182018801F44151728807
:102350001143F288114332891143B28911431A465D
:1023600011434FF4007211430180818B4FF2FF72D1
:1023700011408183318A01820121BDE8F44000F0DF
:1023800035BC10B501214FF4007000F0B9FB0121FC
:102390004FF4007000F0C8FB00214FF4007000F013
:1023A000C3FBDFF8444B6068DFF8401B08404FF484
:1023B000807108436060A068DFF8341B0840DFF8D4
:1023C000641D0843A060E06A20F47000E062052309
:1023D00001220821204600F043FAA06840F00100E5
:1023E000A060A06840F00800A060A0680007FCD4CE
:1023F000A06840F00400A060A0684007FCD4A0687A
:1024000040F4A000A06010BDDFF81C0D017809B1F8
:10241000491E01707047F8B50646DFF8D84A606873
:10242000451CB5F5803F24D30025DFF8CC0A0068B1
:1024300080B241F6C8114843DFF8C07AC11200EB00
:10244000115000137884788CB0F5E16F05D201E06B
:1024500003F01CFF20780028FAD156B1DFF8700D88
:102460004FF400417A8C40F209739A422CBF4160CC
:1024700001606560F1BD01B4DFF8380912E048225F
:102480004A434260026842F0010202600268D203DD
:10249000FCD5026852085200026000228260009A55
:1024A000511A0091009941B10099DFF8542A9142E4
:1024B0002CBFDFF8501D0099E1E701B070474FF4E1
:1024C0007A714843D7E710B582B000F099F8ADF8BB
:1024D000020000A800F094F9DFF82C0D00F0DEFDFA
:1024E00000F024FE00F00CFBDFF8FC46042200F0B4
:1024F00017F800F018F8DFF8E84600F014F80422A6
:102500000B2100F00EF805E0491E016603F0BEFE47
:10251000FFF77AFFDFF8E409016E0029F4D113BD5B
:1025200009212046E2E504220A212046DEE52DE9C4
:10253000F04385B0804615461E46DFF8C04904F1D9
:10254000240004F0F4FE04F1340004F0F0FEDFF89F
:10255000B87C206E90B9384600F0A0FD00F0EAFD8E
:1025600000F0CEFADFF880960B2209214846FFF7EB
:10257000BDFD04220A214846FFF7B8FD206E401C2D
:10258000206600F03DF800F042F8CDF80480012EFE
:1025900005D0022E14BF00204FF4005001E04FF48C
:1025A0004050ADF80A004FF48050012D09D0022DA3
:1025B00019BF0020ADF80C004FF48061ADF80C108D
:1025C00003E04FF4C061ADF80C10ADF808000C202A
:1025D000ADF80E000020ADF8100001A9384600F05B
:1025E000ADFDF86840F02000F860B88940F4005074
:1025F000B88102F021FD03F028FE05B0BDE8F083AC
:1026000025208DF8000000208DF8010070478DF81E
:10261000020001208DF8030000A8F1E02DE9F84345
:10262000DFF8E47B3888DFF8A88B4FF48049DFF8C7
:102630008847DFF8C868400637D506F1240004F063
:1026400003FE48B306F1240004F0FEFD48B1306BF0
:10265000716A415C401CB26A904228BF002030631E
:1026600000E00021B980A07B78B9E07B68B906F171
:10267000240004F0E3FD4FF4C071884205D301202B
:10268000E0730121032001F09DFB0120B066A07BD7
:1026900058B9C8F804900AE0B06E30B10020B066B6
:1026A000A07B10B9C8F8009001E0A07B50BB306D52
:1026B00040BB776E77B106F1340004F02FFE8742FD
:1026C00098BF3846316C40183064B16B884204BF03
:1026D00000203064306C716B441806F1340004F053
:1026E0001DFE05463DB12946204600F00DF87566F1
:1026F000C8F8049006E02FB17066002100F004F8DD
:10270000C8F80090BDE8F18370B5DFF8F047606469
:1027100001F13F008009206511F03F0002D1206DDA
:10272000401C2065E164DFF8585D2968606C49044D
:10273000E16C27D541292CBF4026E66CB2B2C021FE
:1027400001F0B9F900F04FF80221084601F03AFB18
:1027500000F04EF889B1E16C41292CBF4026E66CAF
:10276000B2B2802101F0A7F900F038F8E06C801BCC
:10277000E064606C3018606425E004F030FF01F024
:10278000BBFA20E041292CBF4026E66CB2B2802182
:1027900001F091F900F022F80221084601F012FB45
:1027A00000F026F859B1E16C41292CBF4026E66CB7
:1027B000B2B2C02101F07FF900F015F8D6E704F0BD
:1027C0000EFF01F0BDFA286848F6BF71084080F09E
:1027D000300048F280010843286070BDB2B2022187
:1027E000022001F089BAB2B20221022001F0A8BA97
:1027F000E06C801BE064606C30186064E16C7047D2
:1028000070B503781A460121C47804B3DFF8D83BC9
:102810001B6803F4E063C3F5E0631B0A4478C3F16B
:102820000405AC4085780F2626FA03F32B4023439A
:102830001B01DFF8B84B135500784211DFF8B03BAD
:1028400000F01F0001FA00F043F8220070BD5011A3
:10285000DFF8D02C03F01F03994042F8201070BD20
:1028600070B5032407250A290AD3A1F10A06744387
:10287000C668A54026EA0505A3402B43C36007E0D0
:102880004C430669A54026EA0505A3402B43036196
:1028900005231F24072A08D2521E5A43436B944033
:1028A000A34391401943416370BD0D2A08D2D21F42
:1028B0005A43036B9440A34391401943016370BD95
:1028C0000D3A5A43C36A9440A34391401943C162ED
:1028D00070BD016849084900016000210160416044
:1028E0008160C160DFF89C1BDFF89C2B904204BF25
:1028F000086840F00F0058D0DFF82C2C904204BF3D
:10290000086840F0F00050D0DFF8202C904204BF5F
:10291000086840F4706048D0DFF8142C904204BF7F
:10292000086840F4704040D0DFF8082C904204BFA3
:10293000086840F4702038D0DFF8FC2B904204BFC8
:10294000086840F4700030D0DFF8F02B904204BFEC
:10295000086840F0706028D0DFF8E41BDFF8E42B53
:10296000904204BF086840F00F001ED0DFF8D82B5B
:10297000904204BF086840F0F00016D0DFF8CC2B7E
:10298000904204BF086840F470600ED0DFF8C02B9E
:10299000904204BF086840F4704006D0DFF8C42CB1
:1029A000904203D1086840F47020086070470268C4
:1029B000DFF8B43C1A408B681A430B6A1A430B6960
:1029C0001A434B691A438B691A43CB691A434B6A02
:1029D0001A438B6A1A430260CA6842600A688260BE
:1029E0004968C16070470021016041608160C16039
:1029F000016141618161C16101624162816270472F
:102A00000029016812BF41F0010149084900016035
:102A1000704770B5DFF8542C00284CBF94691468D7
:102A2000C0F3034583B2460D3601B34000F44016AF
:102A3000B6F5401F06D124F07064156825F0706566
:102A4000156008E0C60243BF032606FA05F5AC434D
:102A50009C4344F0706401B11C4300284CBF946156
:102A6000146070BD10B5DFF8081C0A68DFF8043C7C
:102A700002F00C02042A14D0082A18BFDFF8F83B31
:102A80000FD10A680C68C2F38342921CE40358BF5A
:102A9000DFF8E83B04D50C68A40348BFDFF8E03B4F
:102AA000534303600B68DFF8DC2B0468C3F30313A4
:102AB0009B5C24FA03F343600B684468C3F302236E
:102AC0009B5C24FA03F383600B684468C3F3C2235E
:102AD0009B5C24FA03F3C3600968C368C1F38131C6
:102AE0008918097CB3FBF1F1016110BDDFF8142DE9
:102AF0000029116814BF084321EA000010607047E4
:102B0000DFF8102D0029116814BF084321EA0000E6
:102B100010607047DFF8002D0029116814BF0843CA
:102B200021EA000010607047DFF8242D00291168A9
:102B300014BF084321EA000010607047DFF8202D21
:102B40000029116814BF084321EA00001060704793
:102B50004109DFF88823012908BF116803D0022941
:102B60000CBF116A516A012200F01F0002FA00F046
:102B7000084018BF0120C0B2704780B5DFF89C1C28
:102B800088420AD101214FF48050FFF7CDFF002188
:102B90004FF48050BDE80440C6E7DFF8841C88424B
:102BA00006D100F0C7FAFFF7C9FF00F0BFFA0BE04B
:102BB000DFF8EC1C884209D101214FF40040FFF7F7
:102BC000BDFF00214FF40040FFF7B8FF01BD00003A
:102BD0000004300008ED00E0002000080005FA05C0
:102BE000000C014000860D420008014000290188C8
:102BF00012BF41F040014FF6BF7211400180704793
:102C0000002A828814BF114322EA010181807047A3
:102C100080B5DFF8901C884208D101214FF4006094
:102C2000FFF782FF00214FF40060BFE0B0F1804F5A
:102C300006D101210120FFF781FF0021012014E0CE
:102C4000DFF8641C884206D101210220FFF776FFDD
:102C50000021022009E0DFF8541C884208D101213C
:102C60000420FFF76BFF00210420BDE8044065E766
:102C7000DFF83C1C884206D101210820FFF75EFFE7
:102C800000210820F1E7DFF82C1C884206D1012141
:102C90001020FFF753FF00211020E6E7DFF8181C93
:102CA000884206D101212020FFF748FF0021202083
:102CB000DBE7DFF8081C884208D101214FF40050FF
:102CC000FFF732FF00214FF400506FE0DFF8F01BF8
:102CD000884208D101214FF40020FFF725FF002191
:102CE0004FF4002062E0DFF8DC1B884208D10121AC
:102CF0004FF48010FFF718FF00214FF4801055E0CB
:102D0000DFF8C41B884208D101214FF40010FFF7FF
:102D10000BFF00214FF4001048E0DFF8B01B8842A1
:102D200006D101214020FFF709FF002140209CE748
:102D3000DFF89C1B884206D101218020FFF7FEFEB0
:102D40000021802091E7DFF88C1B884208D1012107
:102D50004FF48070FFF7F2FE00214FF4807084E79B
:102D6000DFF8741B884208D101214FF48030FFF74F
:102D7000DBFE00214FF4803018E0DFF8601B884252
:102D800008D101214FF40030FFF7CEFE00214FF4AF
:102D900000300BE0DFF8481D884209D101214FF4D3
:102DA0008020FFF7C1FE00214FF48020FFF7BCFE1A
:102DB00001BD000010E000E0B00000204001002054
:102DC0000000FFF8FFFFF6FE6000424230B50488C5
:102DD000DFF8E82ADFF8CC3A984210D090420ED0C3
:102DE000B0F1804F0BD0DFF8C05AA84207D0DFF80F
:102DF000BC5AA84203D0DFF8B85AA84204D14FF613
:102E00008F752C404D882C43DFF8A85AA84208D073
:102E1000DFF8A45AA84204D04FF6FF452C40CD88D5
:102E20002C4304808C8884850C88048598420DD0BE
:102E300090420BD0DFF8A02A904207D0DFF89C2AFE
:102E4000904203D0DFF8982C904201D1097A018694
:102E50000121818230BD30B5028C4FF6FE731A40DD
:102E60000284048C8288038B4FF68C752B400D886E
:102E70002B434FF6FD752C400D892C434D882C4378
:102E8000DFF8205AA8420FD0DFF8305AA8420BD002
:102E9000DFF8445AA84207D0DFF8405AA84203D0CE
:102EA000DFF83C5CA84210D14FF6F7752C404D89F5
:102EB0002C434FF6FB752C408D882C434FF6FF4575
:102EC0002A408D892A43CD892A4382800383C98879
:102ED0008186048430BD0000B4010020001002404F
:102EE00000200240A443002000240140FFFEF0FF28
:102EF000FDF7F1FFB84300204C2401400000002002
:102F0000410D0300F8B504460D46698800290CBF41
:102F100002260026AA88012A0CBF022701272B8936
:102F200028880028204610D100F088F8E98820463B
:102F300000F071F82B893A463146204600F095F8AA
:102F4000E9882046BDE8F4406EE000F08EF8E9889C
:102F5000204600F069F82B893A463146204600F0B9
:102F60006DF8E9882046BDE8F44054E04FF6FF7163
:102F7000818000210180C180418001727047002161
:102F8000018041808180C180018141818181C18135
:102F90007047002101804180012181800021C18092
:102FA000018170470029018812BF41F001014FF6ED
:102FB000FE721140018070470029B0F8441012BF22
:102FC00041F400414904490CA0F844107047002A1C
:102FD000828914BF114322EA01018181704702896D
:102FE0004FF68F731A4013E00029018812BF41F099
:102FF00080014FF67F7211400180704702894FF6C1
:10300000F87302E002894FF67F731A400281028949
:10301000114301817047028B4FF6F3731A4002830C
:10302000028B114301837047028B4FF2FF331A402A
:103030000283028B42EA01210183704770B5048C40
:103040004FF6FE752C400484048B058C4FF60C76ED
:103050003440224342EA031202834FF6FD722A40B3
:10306000114341F00101018470BD70B5048C4FF62D
:10307000EF752C400484048B058C40F6FF463440E9
:1030800044EA033343EA022202834FF6DF722A4006
:1030900042EA011141F01001018470BD80B55A4926
:1030A000884208D100F046F8FFF73EFD00F03EF8F8
:1030B000BDE8044038E5DFF8841C884208D10121CE
:1030C0004FF40030FFF73AFD00214FF4003025E0C7
:1030D000DFF8D01C884208D101214FF48020FFF78F
:1030E0002DFD00214FF4802018E0DFF8BC1C884241
:1030F00008D101214FF40020FFF720FD00214FF4FB
:1031000000200BE0DFF8EC1C884209D101214FF4CC
:103110008010FFF713FD00214FF48010FFF70EFD24
:1031200001BD000002000E008643002000214FF484
:103130008040704701214FF48040704730B585B022
:1031400004460D46208A4CF6FF710840E988084382
:103150002082A0894EF6F3110840A98808432989E6
:10316000084369890843A081A08A4FF6FF410840BF
:10317000A9890843A08200A8FFF774FC2248844272
:103180000CBF03980298296819225043A28912049F
:103190004CBF49008900B0FBF1F16422B1FBF2F0B1
:1031A0000001030902FB1311A3891B0406D5C90002
:1031B0003231B1FBF2F101F0070105E009013231D2
:1031C000B1FBF2F101F00F010843208105B030BDE1
:1031D0001008014010B5DFF87C4C002800D115E044
:1031E000A06A00688047206A0A3010BD10B5DFF879
:1031F000644C002800D109E0A06A80688047206AFA
:103200000C3010BD400D030000380140206A012140
:103210000182002010BD10B5DFF8384C216A00286B
:1032200002D10220088237E00020A0820878002224
:103230007F23184215D1487A81064CBF42F0020123
:10324000002121754006207D08D540F00100207541
:10325000A06A0069804704F1140010BD00F0FE0070
:10326000F5E700F07F03012BF5D000F07F00022886
:1032700012D1487900F00F0142F0010200F0C4FAC7
:1032800005D500F030001028E2D12275E0E700F407
:103290004050B0F5805FF7E7002010BD2DE9F04108
:1032A000DFF8B04B206A017811F07F0102BF417A4C
:1032B00001F0DF0141724FD0022903D1418809B9E1
:1032C000017909B1022048E0417921F08008DFF856
:1032D000CC5C0A0655F828204CBF02F0300202F4FC
:1032E0004052237A9845EDD2002AEBD0807A00280C
:1032F000E8D0080655F828000BD500F0300010285B
:1033000027D1404600F04CFC3021404600F002FC42
:103310001FE000F44050B0F5805F1AD148F28007FA
:103320004BF68F76B8F1000F08D100F093FA2868B9
:10333000304080F44050384328600AE0404600F0B6
:103340001EFC55F82800304080F44050384345F8C2
:103350002800A06A406980470020BDE8F08170B570
:10336000DFF8F00A036A5C7924F08001DFF82C2C86
:10337000250652F821504CBF05F0300505F44055A4
:10338000067AB14207D25E88002E04D1002D02D009
:103390009B7A002B01D1022070BD48F280032406E5
:1033A00052F8214042BF48F6BF752C4084F010040B
:1033B00004D44BF68F752C4084F48054234342F898
:1033C0002130806A80698047002070BDDFF8642B5F
:1033D000126A538A20B98888C01A10820020704768
:1033E00008681818704700000CED00E000E400E0E9
:1033F00000E100E0F8B5DFF83C4B206A00F1100571
:103400002F88A968DFF8986B080016D0AFB1A8889C
:10341000874288BF0746384688472988C91B2980C4
:1034200069887918698031683A4689B2DFF82C3D9D
:1034300053F8111089B200F055FB288840B14FF4C1
:10344000405060830021002000F0C6FB3020A083A4
:10345000206A2988AA88914202D303210172F1BD12
:10346000002901D00521F9E706210172306880B2F8
:10347000DFF8EC1C002241F810203020A083F1BDC1
:10348000085C004004000240080002402DE9F041C1
:10349000DFF8A04A206A00F110052988DFF8008BC8
:1034A000A9B9027A042A12D1207B60B1D8F80000B1
:1034B00080B2DFF8AC1C002241F810203020A0833D
:1034C000042722732AE007271020A08326E0AE8875
:1034D0008E4205D30427B14288BF31460E4600E034
:1034E0000227C088A9688847D8F80010B2B289B20C
:1034F000DFF8703C53F8111089B200F0DCFAB1B279
:10350000002000F069FB2888801B2880688830181C
:1035100068803020A0834FF440506083206A077297
:10352000BDE8F08180E100E01C0002403000024074
:1035300044000240580002406C00024080000240FB
:1035400004040240080402401C040240300402400B
:103550004404024038B5DFF8DC49206A4578017838
:103560007F2211423DD1092D0ED1C178627A8A4263
:103570005FD38278002A5CD18288002A59D1817277
:10358000A06A406880475EE0052D0BD1C178802994
:1035900006D2817821B9818811B9807A002852D069
:1035A00008205CE0032D0FD1C178012941D1818829
:1035B00000293ED1417A8A063BD541F02001417273
:1035C000A06AC06980473EE0012D32D1C17801294F
:1035D0002FD1818869BB407A80062AD5FFF75EFE2D
:1035E00026E001F07F02012A18D10B2D21D1C178EC
:1035F0004079626A92699047216A8A7ACAB1C0B9F1
:103600000879B0B98878A0B9A06AC0688047206AF4
:103610004179C172206AC178017314E001F07F0022
:10362000022806D1012DD9D0032D02D1FFF797FE34
:1036300048B12846616A49698847032808BF0920BC
:103640000DD00028ACD10620DFF85419096889B2E2
:10365000DFF80C2B002342F811303021A183216ABE
:10366000087231BD580402400F80FFFF0400014082
:1036700004100240001BB70000127A0000093D0050
:10368000808D5B000002002038B5DFF8A848206A72
:103690004178626A062910D101787F2319422BD123
:1036A0008078012808BFD1696DD0022808BF116A4F
:1036B00069D0032820D1516A65E000293FD14188B3
:1036C000D1B9C188022917D10179A9B901787F231D
:1036D000194204D1838813B9DFF84C1C53E001F080
:1036E0007F03012B13D1002140799269904718B9CB
:1036F000206A807A0028EFD1206A4078616A0969DF
:103700008847032848D1206A0921017231BD01F0A0
:103710007F010229F0D1407900F00F0100F0700222
:1037200000F072F84CBF00F0300000F44050237AF3
:103730009942E1D2002ADFD10028CDD1DCE7082967
:1037400006D100787F210842D6D1DFF8E01B1AE0CD
:103750000A29D1D1017801F07F010129CCD1817AE8
:103760000029C9D041880029C6D101790029C3D1D7
:10377000C1880129C0D10021407992699047002871
:10378000BAD1DFF8D01C0800B6D0206A00224282ED
:103790008161002088470020216A0A8A4FF6FF7362
:1037A0009A4202D10920087231BD022801D0002AB4
:1037B00001D10820F7E7087800061DD5C8880090D9
:1037C000636A009D95423CBF009808820ED38242F6
:1037D0000CD293F82C00824238BF002005D392FB14
:1037E000F0F500FB152008B90120207393F82C0098
:1037F0008882BDE8314049E6032008724FF440500A
:10380000608331BD14100240DFF89037000653F892
:1038100021007047181002401C1002400030014087
:103820000038004080B500F015F8DFF80807016A9D
:103830000A7A082A04D14FF48052428310228283EC
:10384000087A092801D1012002BD002002BD000034
:103850000C100240DFF8C00D90F82C100020C6E1DB
:103860001010024070B5DFF8EC15097A0022DFF87D
:103870002C370CE0D4B253F8245048F68F763540FC
:10388000254348F28006354343F82450521C8A42AF
:10389000F0D340F08000DFF8841D086070BD0000A8
:1038A000003C0040002C01400004004000080040A3
:1038B000000C0040001000400014004000340140A3
:1038C000004C0140005001400054014000180040ED
:1038D000001C004000200040004001400044014026
:1038E00070472DE9F8430020ADF8000048F280044D
:1038F00048F60F7940F68F78DFF8A056DFF8546568
:103900004BF6BF7720E055F82010ADF80010BDF859
:103910000010090409D555F8201008EA010145F8FE
:10392000201006EB8000806C8047BDF80000000688
:103930000AD5707B55F8201009EA010145F82010DE
:1039400006EB8000C06A8047686CF083000440F199
:10395000B080F08B10F00F007073D4D128687083A2
:10396000708B00F03000B083708B00F44050708397
:103970002868384042F22001484020432860F08BFC
:10398000C006286820D409EA00002860306A017A5D
:10399000022914D0042912D006296CD141780529B6
:1039A00009D101787F22114205D1C078FFF75AFF73
:1039B000B06A006A8047706A806880475BE0FFF702
:1039C00065FD306A007A57E0ADF80000BDF80000F0
:1039D000000534D5286808EA00002860DFF884076D
:1039E000296D89B2DFF8742732F8111000EB41011C
:1039F000306A027A092A16D011F8012B0270306A57
:103A000011F8012B42704A88306A13061B0C43EAF6
:103A10001222428031F8062F13061B0C43EA1222B1
:103A200082808988C180306A01210172306AC08831
:103A300010B1FFF729FE21E0FFF78CFD1EE0BDF875
:103A4000000000047FF580AF286808EA00002860C5
:103A5000306A007A02280ED004280CD0032807D040
:103A6000052805D0072806D1706AC068804702E0A3
:103A7000FFF7C0FCA5E70820316A0872FFF7D2FE05
:103A800028683840718BC90448BF80F48050718B1E
:103A9000890448BF80F40050B18BC90648BF80F04C
:103AA0001000B18B890648BF80F0200080B220430F
:103AB0002860BDE8F18310B5DFF8A83603EB4101BB
:103AC000521C521009E010F8013B10F8014B43EA78
:103AD000042321F8023B891C521EF4D110BD0000C2
:103AE00000480140DFF87C3603EB4101521C5210C4
:103AF00004E051F8043B20F8023B521EF9D1704714
:103B000010B5DFF8982452F8203048F68F1423407F
:103B1000194324E010B5DFF8842452F8203048F629
:103B2000BF742340CC0648BF83F01003890648BF0A
:103B300083F020030FE010B5DFF8602452F8203046
:103B40004BF68F742340CC0448BF83F48053890420
:103B500048BF83F4005348F28001194389B242F808
:103B6000201010BDDFF8341451F8202048F68F7370
:103B70001A4048F280131A4341F820207047DFF8BA
:103B80001C1451F82020520409D551F8202048F681
:103B90008F731A404CF280031A4341F8202070477B
:103BA000DFF8F81351F82020520609D551F82020EB
:103BB00048F68F731A4048F2C0031A4341F8202098
:103BC0007047DFF8DC23126892B202EBC000DFF826
:103BD000EC2C4908490007E0DFF8C423126892B2D0
:103BE00002EBC000DFF8782542F810107047DFF8CC
:103BF000B023126892B202EBC000DFF8C42C02EBD3
:103C000040003F2909D34A091F23194208BF521E09
:103C10001204910941F4004105E04A08C90748BF70
:103C2000521C120491090160704730B5DC4B1C68CE
:103C3000A4B214EBC004DFF82C554908490045F83C
:103C40001410196889B211EBC000DFF81015520882
:103C5000520041F8102030BDF0B5C300DFF8604CD1
:103C6000DFF8FC04CE4D012931D1296889B25918F9
:103C700000EB4107510956083F2A1ED38C464FF0EE
:103C80001F0E12EA0E0F08BFACF1010C4FEA0C4CEC
:103C90004FEA9C1040F400403860286880B2181841
:103CA00004EB40003F2A1FD31F231A4208BF491EBE
:103CB0000904890941F400411CE0B446D00748BF1B
:103CC0000CF1010C4FEA0C4C4FEA9C10E4E702297E
:103CD00011D1296889B2591840F81120286880B29A
:103CE000181844F81020F0BD3146D20748BF491CCF
:103CF000090489090160F0BD10B5DFF86434A84CEF
:103D0000012919D1216889B211EBC00003EB4000F1
:103D10003F2A0AD351091F231A4208BF491E09042A
:103D2000890941F40041016010BD5108D20748BF24
:103D3000491C09048909F6E722E00000004400401C
:103D400010B5DFF87C3B964C012919D1216889B266
:103D500011EBC00003EB40003F2A0AD351091F2397
:103D60001A4208BF491E0904890941F40041016053
:103D700010BD5108D20748BF491C09048909F6E75C
:103D8000022905D1216889B211EBC00043F8102047
:103D900010BD8349096889B201EBC000DFF87819CA
:103DA0000BE0000000480040004C00407C490968DE
:103DB00089B201EBC000DFF8081B51F81000800544
:103DC000800D704748F68F72DFF89C3C012902BFD6
:103DD00053F82010114048F2C00206D0022907D142
:103DE00053F8201011404CF28002114343F8201088
:103DF000704700000050004038B5684CDFF86C5C3C
:103E000008E054F8202040F68F731A4044F8202030
:103E1000886C804728684749C883000419D547F64D
:103E2000FF702860C88B00F00F00487354F8202002
:103E300092B201EB80011304E3D41206EAD554F8E0
:103E4000202048F60F731A4044F82020C86A8047A3
:103E5000E0E731BDB000002038B5DFF8804C354DCB
:103E60006068E883E88B298B0840400506D54FF64B
:103E7000FF306060DFF8A00740688047288BE98B3F
:103E80000140890407D54DF6FF716160DFF8441DDC
:103E90004FF400420A60E98B0840C00405D54EF695
:103EA000FF706060002003F035FDE88B298B08402F
:103EB000000512D5E87C50B1206840F0080080B2BF
:103EC0002060206840F0040080B2206002E0022000
:103ED00003F020FD4FF2FF706060E88B298B0840F3
:103EE000000448BFFFF7FDFC31BDDFF84C0C8189B1
:103EF0000288890600D4704738B5910618D58488A1
:103F0000DFF8385C05F1340003F098F9022805D297
:103F1000DFF8C00C4FF40041016031BDE86B696B04
:103F20004454E86B401CA96B884228BF0020E8631A
:103F300031BD0000B000002080B504220421DFF86C
:103F4000980CFEF7D3F80021DFF8900CFEF761FD26
:103F5000DFF88C0CFEF75CFE00210220FEF7DAFD94
:103F6000DFF8800CFEF7B5FC00F01CF8DFF8780CE9
:103F7000FEF74EFE00210420FEF7CCFDDFF86C0CAE
:103F8000FEF7A7FCDFF8680CFEF7A3FC00F00AF8C8
:103F9000DFF8600C0021017001BD0000005C0040F2
:103FA000505C004000210120FEF7A0BDF0B5A1B09B
:103FB000FFF7C2FFDFF83C0C0178002940F0CC800D
:103FC00001210170FFF7EFFF01210420FEF7A2FDA0
:103FD000DFF8187C3846FEF77CFC06A8FEF703FDE8
:103FE000DFF8E00C00F0C6F84FF480740C944FF446
:103FF00080650D9500200E904FF4005600F0B4F847
:1040000001213846FEF7FCFCDFF8E47B3846FEF77A
:1040100060FC06A8FEF7E7FCDFF8000D00F0AAF848
:104020000C940D9500200E9000F09EF8012138466A
:10403000FEF7E6FC03A8FEF7ACFF0420ADF80C0089
:104040000020ADF80E000220ADF810000020ADF801
:104050001200ADF81400DFF8906B03A93046FEF7AC
:1040600051FF50213046FEF7BAFF04213046FEF7DB
:10407000C5FF80213046FEF7C5FF012229463046A4
:10408000FEF7A5FF01224FF400713046FEF79FFFB7
:10409000002030850120B08201463046FEF782FFC5
:1040A00001210220FEF736FDDFF8386B3046FEF7BF
:1040B00010FC15A8FEF797FCDFF8C80C159010202F
:1040C000179000201890199080201A901B941C952E
:1040D00000201D904FF480501E9000201F9015A9C5
:1040E0003046FEF764FC01213046FEF789FC00A84B
:1040F000FEF73CFF02F061FCFEF768FE11A8FEF738
:104100003EFF6020ADF844000120ADF846000020DD
:10411000ADF84A000220ADF84C0011A92046FEF788
:104120009AFE02F03CFCFEF75FFF01224FF40071A3
:104130002046FEF74CFF01212046FEF733FF012108
:104140002046FEF739FF0121DFF8900AFEF761FCF7
:1041500002F02CFCFDF7CAFF21B0F0BD0860004062
:1041600004600040006000400F96109006A9384699
:10417000FEF71DBC06900020089009900A90802050
:104180000B90704770B504464FF48035DFF8F80B9C
:104190000068000506D40120FEF76DF96D1EF5D10B
:1041A000012070BD0A20FEF78AF9DFF8B82C506CA8
:1041B00040084000506402209064DFF8D43C13654E
:1041C000506C40F001005064DFF8C80C4FF6FF71EE
:1041D000018301210180DFF8C01C4FF47F450D8071
:1041E00000254D8001250580D56E6D086D00D566D2
:1041F000022515679167D56E45F00105D5661568EE
:10420000AD02FCD54FF400155560DFF8905C1668E0
:10421000B60401D46D1EFAD14FF400565660002D3D
:10422000BED05A88DFF8383D93FBF2F32380930029
:104230009C1103EB5464E4112546A3EBC414402CF9
:10424000A8BF6D1C4D840D2353439C1103EB546494
:10425000E4112546A3EBC414402CA8BF6D1C0D84AB
:1042600002EBC2039C1103EB5463DB118B8412211C
:1042700051438A1101EB5261C9110183012101806F
:10428000002070BD70B5DFF8101C0C46DFF8D42B91
:10429000536C5B085B00536408239364DFF8F03BC6
:1042A0001365556C45F00105556408254E8C24F8BE
:1042B000026B6D1EFAD100252580DFF8D84B012551
:1042C0002580D46E64086400D4660924146791675D
:1042D000D46E44F00104D4661468A402FCD54FF4F3
:1042E00000145460DFF8B44B1568AD0401D4641EAB
:1042F000FAD14FF400555560002C01D1012070BD5A
:10430000002204786400047033F812508E8CB54299
:1043100026BF047804F0FE0444F001040470521C2B
:10432000082AEEDB002070BD17320008D5310008E6
:104330002DE9FA4E0446934614F00F0101D10120F5
:1043400085E0C800220448BF401CDFF8185B6A6C97
:10435000520852006A6480B2A864DFF8340B286502
:10436000686C40F0010068640026DFF82C7B4FF495
:104370000019DFF820AB2CE00098325C3B464FF090
:10438000070C012000FA0CFE12EA0E0F14BF788C05
:10439000388C23F8020BACF101004FFA80FCBCF121
:1043A000000FEED5002023F8020B0120AAF8000030
:1043B000E86E40084000E86609202867AF67E86EAD
:1043C00040F00100E86628688002FCD5C5F804903A
:1043D000761CB6B28E42CFD3C4F3811616E02021EC
:1043E000384605F065F90120AAF80000E86E40089B
:1043F0004000E86610202867AF67E86E40F00100D3
:10440000E86628688002FCD5C5F804903046461E50
:1044100080B20028E3D1DFF8840A2968890401D436
:10442000401EFAD14FF400516960002887D0C4F3D0
:1044300003245CB1002606EB0B00FFF723FF0028E6
:104440007FF47DAF761CB6B2A642F4DB0020BDE857
:10445000F68E0000ED31000880B5002803D1FFF78B
:10446000A5FD002002BD012002BD80B5002803D1BA
:10447000FFF762FD002002BD012002BD80B518B922
:104480000846FFF77FFE00B1012002BD70B5164659
:104490001A46049D059C069B50B90BB14FF4004091
:1044A00046EA052343EA84131843FFF741FF00B1AE
:1044B000012070BD2DE9F041804600F0E7F82E6143
:1044C00000F0E9F84FF40060686100F075F800F062
:1044D000E1F82E6100F0DFF800F0DCF82E6100F06A
:1044E000DAF800F0D7F82E6100F0D5F800F0D2F835
:1044F0002E6100F0D0F800F0C4F800F0CBF82E6187
:1045000000F0C9F800F0C7F8A8680005F5D5002745
:1045100008247F0800F0BEF82E6100F0BCF8A868FF
:10452000000548BF47F08007641EF2D188F800708C
:1045300037E02DE9F041044600F0A8F82E6100F0C4
:10454000AAF800F036F800F0A5F82E6100F0A3F804
:104550006F6100F09FF82E6100F09DF800F09AF86E
:104560002E6100F098F800F095F82E6100F093F8B5
:104570004FF00808E0074CBF2F616F6100F08AF828
:104580002E6100F088F86408B8F10108F2D100F05B
:1045900078F800F07FF82E6100F07DF8A86800053B
:1045A000F7D500F077F82E6100F075F80020BDE82F
:1045B000F0814FF400672F6103220B212846FDF79D
:1045C00095BD38B500280FD100F01EF84FF4005506
:1045D000656103220D212046FDF788FD0120FDF7CE
:1045E0006EFF2561002032BD012032BD10B50028CC
:1045F00008D100F009F804220D212046FDF776FDD0
:10460000002010BD012010BDDFF8CC4538220B2161
:104610002046FDF76BBD0000B40100204C5C00405B
:104620002DE9F0410C46002828D100F06EF82E61EB
:1046300000F031F8FFF7BDFF00F02CF82E6100F01C
:104640002AF800F027F82E6100F025F84FF008084E
:10465000E0074CBF2F616F6100F01CF82E6100F085
:104660001AF86408B8F10108F2D100F00AF800F075
:1046700011F82E6100F00FF8002000E00120BDE8E5
:10468000F08138220B212846FDF730BDDFF8485570
:104690004FF400566E610020FDF7EDBE2DE9F041AC
:1046A000884600282ED100F030F82E61FFF7F3FF86
:1046B0004FF400676F61FFF77FFFFFF7EBFF2E619D
:1046C000FFF7E9FF2F61FFF7E5FF2E61FFF7E3FF3B
:1046D000FFF7D7FF002708247F08FFF7DBFF2E61D5
:1046E000FFF7D9FFA868000548BF47F08007641EA0
:1046F000F2D188F80070FFF7CDFF2E61FFF7CBFFF6
:10470000002000E00120BDE8F081DFF8CC544FF438
:1047100000566E61FDF7AFBE0460004080B518B969
:104720000846FFF7C7FE00B1012002BD80B518B9E9
:104730000878FFF7FEFE00B1012002BD010018BF9E
:10474000012108467047010018BF01210846704743
:104750002DE9F8430D4616469946089C58B906EAD5
:1047600005004FF6A041084205D125EA06004FF6A4
:104770005041084201D001209EE0DFF85C74E80758
:1047800015D5F00707D54FF40060E1074CBF38613D
:104790007861032208E05FEAC97004D5E00754BFDE
:1047A0002822382200E004220B2100F08BF84FF47D
:1047B0008068A80715D5B00707D5A0074CBFC7F874
:1047C0001080C7F81480032208E05FEA897004D5DE
:1047D000A00754BF2822382200E004220A2100F05A
:1047E00071F8A80518D54FF400702040B10507D521
:1047F000002819BF4020386140207861032208E07A
:104800005FEA895104D500280CBF2822382200E035
:104810000422062100F056F8E8050DD5F00507D56D
:10482000E00547BF1020386110207861032200E0C6
:104830000422042100F046F8DFF8B49B680710D585
:10484000700709D54FF4007061074CBFC9F810001C
:10485000C9F81400032200E0042209214846FDF7AC
:1048600045FC28070ED5300707D520074CBFC9F8EF
:104870001080C9F81480032200E004220A2148466F
:10488000FDF734FCE80603D503220D2100F01AF8E9
:10489000680603D503220F2100F014F8A80603D5FB
:1048A00004220E2100F00EF8280604D50422082167
:1048B0004846FDF71BFC0020BDE8F2830060004085
:1048C0000C6000403846FDF711BC70B5002804D1DB
:1048D000DFF8200B0840012801DB012070BDDFF864
:1048E000180BCB0705D54FF40063D4074CBF03600A
:1048F00043604FF480638C0703D594074CBF03607B
:1049000043608C0505D5940547BF402404604024CE
:104910004460CC0505D5D40547BF1024046010249D
:104920004460DFF8D84A4D0705D54FF400755607A7
:104930004CBF256065600D0703D515074CBF23608C
:104940006360CB0605D54FF40053D4064CBF03601B
:104950004360490605D54FF4004152064CBF016043
:104960004160002070BD30B5002803D14FF65040A3
:10497000014201D0012030BD0023DFF80C04CC0738
:1049800003D50468240548BF01238C0704D50468B7
:10499000640548BF43F002038C0506D5046864062D
:1049A00003D54FF4007423439BB2CC0506D50468AD
:1049B000640603D54FF4807423439BB2DFF8084D9F
:1049C0004D0705D52568AD0544BF43F004039BB2F0
:1049D0000D0705D525686D0544BF43F008039BB25C
:1049E0008D0605D50068400444BF43F020039BB208
:1049F000080605D52068C00544BF43F080039BB27C
:104A0000002A18BF1380002030BD38B50024DFF81D
:104A1000BC5CDFF87403006880040CD4A888FDF740
:104A20002AFDA8880419A4B268880028F1D084421D
:104A3000EFD3022032BD002032BD38B50024DFF8AC
:104A40008C5CD148006800040CD4A888FDF713FDE5
:104A5000A8880419A4B268880028F2D08442F0D350
:104A6000022032BD002032BD005C0040445C0040AA
:104A7000F8B50024584D00F0CEF8DFF8506C00F087
:104A8000BBF800F0CDF8FFF7C0FF002801D00220EE
:104A9000F2BD4FF40057FFF7D0FFA0B1A8680004A3
:104AA00011D400F0ACF800F01BF800F0A8F800F00A
:104AB000B7F8FFF7AAFF0028E9D12046441CC0B28E
:104AC0000A28EBD3E3E700F09AF800F09CF800F036
:104AD00096F800F005F80020F2BD0000405C0040B0
:104AE0006F6103220D212846FDF700BB38B53A4C13
:104AF0004FF400506061032200F013F9DFF8CC5B43
:104B000000F0E2F84FF40040606103220F2100F052
:104B100009F900F0D9F800F003F9FFF776FF40B982
:104B200000F0D5F838220F2100F0FCF8FFF785FFE0
:104B300000B1022032BD000000380140000000201A
:104B40002DE9F04107464FF008084FF40054224D7C
:104B5000DFF8786B00F050F8380606D500F05BF807
:104B6000FFF76BFF18B1022031E000F04CF87F0036
:104B700000F042F800F054F8FFF747FF0028F2D1A8
:104B800000F03DF86C61FFF7ACFFB8F10108E1D12E
:104B900000F032F800F03FF800F02EF800F040F896
:104BA000FFF733FF0028DED100F029F8A8680004E1
:104BB0006C6106D5FFF795FFF088FDF75CFC0120DE
:104BC00005E0FFF78EFFF088FDF755FC0020BDE8FB
:104BD000F081000014080140000C014000081A0098
:104BE000000400406C000240000800404400024005
:104BF00008000240874300203088FDF73CBC308825
:104C00004000FDF738BC4FF40040686103220F21DB
:104C10002846FDF76BBA38220F212846FDF766BA01
:104C200038220D212846FDF761BA2DE9F8430446E4
:104C3000894600202070DFF8786C00F058F80827CB
:104C40004FF40058DFF8845A00F041F800F04AF8B9
:104C5000FFF7DBFE08B1022031E000F038F82078E1
:104C600040002070B168090444BF40F0010020708A
:104C700000F031F87F1EE7D100F026F8B9F1000FFF
:104C800005D000F034F8FFF7D8FE40B1E3E74FF469
:104C90000040706103220F213046FDF727FA00F033
:104CA00013F800F01FF8FFF7B0FE0028D3D100F092
:104CB0000EF800F010F8E888FDF7DDFB0020BDE8F5
:104CC000F2830000380800402888FDF7D4BB28880C
:104CD0004000FDF7D0BBC6F8148003220D213046FA
:104CE000FDF704BA38220D213046FDF7FFB938220E
:104CF0000F213046FDF7FAB910B5DFF8B44B00F0DC
:104D00000FF838220F2100F00DF8FFF77EFE10B9E2
:104D1000FFF793FE00B1012010BD000034080040F1
:104D200038220D212046FDF7E1B9010018BF01210D
:104D30000846704780B510B9FFF7DEFF00B10120CB
:104D400002BD70B514461D464FF47A7292FBF1F61F
:104D5000002814D1FFF7D0FF002810D1B6B2B00858
:104D600001D106B10120DFF864190880002D08BFC9
:104D700001254D8001208880CC80002070BD01205D
:104D800070BD000034040040080C01402DE9F041E2
:104D9000884614461D46069F18BB00F04DF8F0B932
:104DA00048F00100C0B2FFF7CBFEC0B9B6B2AE42C8
:104DB0000CD2691E8E4214BF002101213019FFF769
:104DC00034FF02280BD0761C0128EFD1012F08BF39
:104DD000FFF78CFEB0B2A84203D3002002E0FFF739
:104DE00085FE0120BDE8F0812DE9F0410C46154615
:104DF0009846069FE8B900F01FF8C0B904F0FE001D
:104E0000FFF79EFE98B9B6B2464507D2705DFFF730
:104E100097FE02280BD0761C0128F4D1012F08BF81
:104E2000FFF764FEB0B2404503D3002002E0FFF775
:104E30005DFE0120BDE8F08107B10127002617E6DD
:104E400038B5DFF8B4454FF40061002814BF216085
:104E500061604FF40055256000F006F8656000F0D1
:104E600003F831BD000002400020FDF704BB70B51F
:104E7000DFF8344D4FF40055A5602668FFF7F4FFC6
:104E8000E560FFF7F1FF3604F00E00F0010070BDA1
:104E9000344200201404004060430020FFFF0F0054
:104EA0002DE9F84307460D4616469946089CDFF85B
:104EB000008A00F03EF80120FFF7C2FF3846FFF7F6
:104EC000BFFF4846FFF7BCFF082705F08000FFF74B
:104ED000B7FF6D007F1EF8D1B9F1000F0DD000F0C3
:104EE00023F800260A27FFF7C2FF40EA46067F1E86
:104EF000F9D100F01EF801270CE0082706F0800029
:104F0000FFF79EFF76007F1EF8D1032702E02046C0
:104F1000FFF796FF3846471EC0B20028F7D100F0D1
:104F200003F8F0B2BDE8F28328220B214046FDF7DA
:104F3000DDB803220B214046FDF7D8B838B5DFF8BD
:104F4000704900F0DBF816250020FFF779FF6D1E91
:104F5000FAD128220B212046BDE83840FDF7C6B81B
:104F600000A08C0070B582B00C464FF47A75002812
:104F700007D144B9DFF8340C408C40F20971884203
:104F800001D3012076BDDFF8286900F05BF800F05E
:104F900053F8012C0ED101F058F900F07BF84FF4D2
:104FA0008064346103220A2100F043F800F072F8B3
:104FB00074611FE0F4B900F03AF80422082100F00F
:104FC00038F800F067F84FF4807070610322082110
:104FD00000F02FF80520FDF772FA02E00A20FDF735
:104FE0004AFAB068000503D56D1EADB2002DF5D1AB
:104FF00000F028F84FF40050706103220D2100F0FA
:1050000018F8002000900023024650210120FFF7ED
:1050100047FFFFF793FFFFF791FFFFF78FFFFFF7C2
:105020008DFFFFF78BFF00F002F8002076BD2822ED
:105030000B213046FDF75AB8DFF82C0D0178491CDA
:105040000170704703220B213046FDF74FB810B5B1
:1050500000281DD1DFF8584801290FD14FF4806096
:10506000206100F017F838220A2100F049F800F01A
:1050700061F801F00BF9FDF7C7F907E0002905D148
:105080000422082100F03CF800F054F8002010BD84
:10509000012010BD0120FDF712BA38B5002811D14A
:1050A000DFF80C48282200F02AF8FFF7E0FE64251C
:1050B000A068000508D40A20FDF7DDF96D1EADB229
:1050C000002DF5D1012032BD42F21075A068000517
:1050D00007D50A20FDF7CFF96D1EADB2002DF5D131
:1050E000F0E74FF40060606100F008F82824002029
:1050F000FFF7A6FE641EFAD1002032BD03220B2169
:105100002046FCF7F3BF002800D101E001207047E2
:1051100010B500280CD100F02FFE38220A21FFF72D
:10512000EFFF2822FFF7EBFF00F004F8002010BD8E
:10513000012010BD04220D212046FCF7D7BF38B551
:105140000C4611461A46049D200702D5FFF7F6FECD
:105150000FE004F0010004F00403A407009305D558
:105160000123FFF79DFE25B1287002E00023FFF721
:1051700097FE002032BD70B504464FF47A75DFF813
:10518000486504E0C0050AD40120FDF774F92846FB
:10519000451E20B1002C3068F4D1C005F4D470BD98
:1051A0002DE9F84F04460D46DFF8786C308AADF8EB
:1051B0000000002030824FF00808DFF86C7C4FF4CC
:1051C00000494FF4005A308A4FEA500BA6F810B04D
:1051D000C7F80CA0B6F90E0008B9FFF7CCFFE0073E
:1051E0004CBFC7F80890C7F80C90E80747BF1020DD
:1051F000B8601020F860B6F90E0008B100F069F848
:10520000C7F808A03868400444BF4BF080003082E3
:10521000B6F90E0010B100F05CF802E00120FFF7D3
:10522000AAFF64086D08B8F10108CCD1BDF80000F0
:10523000BDE8F28F2DE9F74F1C460027DFF86859CB
:105240004FF4004B4FF40058DFF8D8AB03E00120D7
:10525000FFF791FF7F1C0098874238D2FE0801209B
:1052600007F0070188405FFA80F9B9F1010F04BF28
:1052700000203055C5F80C80BAF90E0008B9FFF7C8
:105280007AFF0198305C4946084214BFC5F808B05F
:10529000C5F80CB00298305C084219BF1020A86015
:1052A0001020E860BAF90E0008B100F012F8C5F855
:1052B00008802868400403D5305D49EA0000305575
:1052C000BAF90E000028C2D000F003F8C2E7BDE82A
:1052D000F78F4FF4FA7191FBF0F0FDF7CCB82DE9A0
:1052E000F84F80460D4616461F464FEAD80084B256
:1052F0004FF4005964B3DFF8780C84640765416C9F
:1053000041F0010141644463C663016B41F0010156
:1053100001630021DFF85C2C13889B07FCD54B5DF3
:105320009380491C89B2A142F6DB01688904FCD54F
:10533000C0F8049001688905FCD54FF40071416004
:10534000416C490849004164016B49084900016307
:1053500018F0070035D0DFF8ACAC002100F034F8CD
:10536000DFF84CB5CBF81090032200F030F804229F
:105370000E2100F02DF803220F2100F029F803225E
:10538000042100F025F8E319A219611908F00700BB
:10539000FFF750FF00F017F800F015F80B2200F0AF
:1053A00016F80B220E2100F013F80B220F2100F04B
:1053B0000FF80B22032100F00BF80B22042100F060
:1053C00007F8BDE8F18F01215046FDF70FBC0D2114
:1053D0005846FCF78BBE10B5DFF8983B1A88D20709
:1053E000FCD59A88DFF8104D21809880104610BDBA
:1053F0000008014000FCFFFF100C014010080140B4
:105400002DE9F34F85B017469B46119C129D4FF036
:105410000009CA46BDF840805846011989B201F01A
:1054200007020092C91D4903090C0491DFF8F469D1
:10543000717BC9B1327B081880B209280ED307FAF4
:1054400001F040EA02013173C9B200F0F5FB707B54
:10545000C0F10801CF400838834403E002FA0BF0A2
:1054600007438B4486F80D90F9B200275FFA8BFB57
:105470005A460098C0F108008DF80C0054E0A2F1E3
:10548000080045190822E4B2BDF840000019EDB249
:10549000281804D10120521E90400143C9B2384659
:1054A000B2699047C0B200220021059B002B3BD07F
:1054B000BAF1010F34DBB8F1010F31DB049B9A45DF
:1054C0002EDB029B012B17DBDDF814C003EB0C0E67
:1054D000CDF804E01EF801CC9DF90CE000FA0EFEB8
:1054E0004EEA0C0CDDF804E00EF801CCDDF800C04B
:1054F000A8EB0C081FFA88F82BB1012B10DBDDF8A4
:1055000000C0C4450CDADDF800C040FA0CF0DDF84C
:1055100014C003F80C000098404408381FFA80F8C3
:105520000AF101001FFA80FA0498AAEB000080B289
:105530000290BDF8403003EB040EAE44BEF1010F03
:10554000C0F27D801CB3012A0EDBC2F1080E744547
:1055500008DBC2F1000EB6449EF8080000FA0BF01A
:10556000C7B205E0A05DF9E7082C2CBFFF27A75DB7
:105570001019092808DAA218D2B200249346BBF108
:10558000080F04D1A34602E0083A14190822BDF816
:10559000400098B3082A31DADDF818C0BCF1000FDA
:1055A00017D0B9F1010F09DBCC441CF8010CCBF189
:1055B000080E40FA0EF0C7B29B4506DA069819F8B5
:1055C000000000FA0BF03843C7B209F101001FFADE
:1055D00080F9D318092BBDF840300ADA9A18D2B2F4
:1055E0000023ADF840309346BBF1080F06D19B462F
:1055F00004E0083AD218ADF840200822002D1DD052
:10560000082A1BDA012A0EDBC2F108039D4208DBDF
:1056100053429B191B7A03FA0BF343EA0700C7B204
:1056200005E0AB5DF7E7082D2CBFFF27AF5D5019F4
:105630000928BFF624AFAA18D2B2002523E7C0205C
:105640009DF94C1040FA01F49DF84C1001F007014F
:10565000062903D200F0EFFAC5B20BE09DF84C101A
:10566000C1F1080100FA01F189B200F0E5FAC5B212
:1056700000F0E1FA0598C8B1B8F1010F16DB029B02
:10568000012B0EDB1818019010F8010C9DF90C107D
:1056900005FA01F10843019901F8010C0098404511
:1056A00004DA009845FA00F0059958549DF84C002A
:1056B000C40802E0002100F0BFFA2046441EE4B214
:1056C0000028F7D103F0A9B808080140C043002022
:1056D00010B5DFF8300CFDF7FCF8DFF82C0CFDF707
:1056E000F8F8DFF8280CFDF7F4F800210120FDF7A9
:1056F000FDF9DFF830074FF0FF31C18100F056FEB1
:10570000FCF7F4FC00F0DAF8042200F0D3F80422ED
:10571000032100F0D0F80422042100F0CCF800218D
:105720004FF48050FDF7ECF9FDF700FDFDF7F2F9BD
:1057300000210120FDF76DF9DFF87C0CFDF71DFA63
:10574000DFF8C008BDE81040FDF717BA2DE9F041B9
:105750008CB007460E46FFF7BBFF554C8C2F1FD36E
:1057600001214FF48050FDF7CBF9FDF7E3FCFDF785
:10577000D1F901210120FDF74CF90B220D2100F098
:105780009AF80B220E2100F096F80B2200F092F806
:105790000B22032100F08FF80B220421204610E099
:1057A00000F0E4FA00F087F800F088F8032200F037
:1057B00081F80322042100F07EF804220821DFF89A
:1057C000FC0BFCF793FCDFF85C46E781DFF834580C
:1057D000DFF8E48BB4F90E008C2817DB384600F0B4
:1057E00097FD0121019102210091802302464FF48F
:1057F00082714046FCF796FD012001900220009046
:105800008023002200212846FCF78CFD17B90120D7
:10581000FFF7B1FCDFF8600C4EB97F21A9810021B0
:10582000A8F80C108C2F3FD3DFF8500C3CE0DFF8C9
:10583000501C012E37D18C2F33D301210120FDF7CD
:1058400055F9DFF8400C0090002001900290039081
:1058500004908020059000200690079008904FF457
:105860004050099000200A9000A9DFF8980AFDF73F
:105870009EF8DFF8840800901020029000A9DFF85D
:105880008C0AFDF794F8012211464046FDF7B8F95D
:10589000012202212846FDF7B3F9DFF8E80C606128
:1058A00003E0616101E06161A0610CB0BDE8F081DD
:1058B000000C01400F212046FCF718BC04220E21E9
:1058C0002046FCF713BC010018BF012108467047B1
:1058D00080B5002800D130E1012002BD80B50A4624
:1058E000002800D134E1012002BD10B5029C40B96E
:1058F000DFF8940C016042608360A4B2C4600020B1
:1059000010BD012010BDF8B516461F46069D079C28
:1059100050B9FFF7E3FF38B9A4B20094ABB23A46EE
:105920003146FFF7E2FF00B10120F2BD38B50C4669
:105930001546002812D105E014F8011B00209269D9
:105940009047083DDFF8DC24EDB2082DF4D2002D9D
:1059500002D0557320781073002032BD012032BD73
:1059600030B589B00C4698B9202100A803F0A0FEFC
:1059700000E0641B74B1B4F5807F8CBF4FF4807578
:10598000E5B22A4600A90020FFF7D0FF0028F0D09A
:10599000012000E0002009B030BD28B9DFF8E80B95
:1059A0000261416100207047012070472DE9F04BF2
:1059B0008AB0884616469946129CF11DC9100022ED
:1059C000CDE90622D8B9DFF8C07BB8618DB2052DCC
:1059D0002CBF04222A46414607F1180003F07CFE42
:1059E0000020ADF81000D7F814C0604660B104A8DC
:1059F000029000F08BF800210020E04708B1012060
:105A00002EE0BDF8100008B9C34601E00DF1180BF7
:105A1000CDF80C90F868C0B20290B868C0B201909E
:105A200000960423032259465846FFF7E9FCB4B117
:105A300000F072F80ED004A802900195CDF800B0E5
:105A40004346BA6900210020A0470028D7D1BDF8FD
:105A5000100020B92A465946404603F03DFE00207A
:105A60000AB0BDE8F08B2DE9F04788B088461646AD
:105A70009946109CF11DCD100022CDE9062280B977
:105A8000ADF81000DFF8007BD7F814C0604668B1AD
:105A900004A80290ADB200F039F801210020E047DF
:105AA00008B101202FE0BDF8100008B9C24601E09E
:105AB0000DF1180ACDF80C907868C0B202903868E1
:105AC000C0B2019000960323012251465046FFF7D1
:105AD00097FCBCB100F020F80FD004A80290ADB242
:105AE0000195CDF800A04346BA6901210020A047E6
:105AF0000028D6D1BDF8100020B9AAB251464046C0
:105B000003F0EAFD002008B0BDE8F0870195CDF86C
:105B1000008006ABBA6970470020ADF810003C6900
:105B200020007047010018BF01210846704780B56A
:105B3000002800D101E0012002BDFFF7C9FD0020CF
:105B400002BD80B50A46002800D101E0012002BD57
:105B500000211046FFF7FAFD002002BD70B50C468B
:105B6000154600280AD1002603E0315D00F017F841
:105B7000761CB6B2AE42F8D3002070BD012070BDD5
:105B800038B50C461546002804D0012032BD294600
:105B900000F005F82046441E0028F8D132BD002050
:105BA000A04A926910470000080C01400000002044
:105BB0002DE9FC4D0D460A99DDF83080D21DD41038
:105BC00000B90DB9012034E00BB144F400440027C2
:105BD000BA46944E200408D52878B26990474FF011
:105BE000010A01276004400C441EA4F1010B08E0E7
:105BF0000021405D90470AF1010A0FB104F8010C41
:105C00007F1C5946A1F1010BBFB27C19B2691FFA82
:105C10008AFA504689B20029EAD19DF82C10405DDD
:105C200090470FB104F8010C414600F005F8785593
:105C30000020BDE8F68DA1B20020B2691047010036
:105C400018BF01210846704780B5002800D174E7CD
:105C5000012002BD80B50A46002801D1012178E764
:105C6000012002BD10B5029C002805D1002903D0F7
:105C7000002A01D0002B01D1012010BD2046694C23
:105C80006469A047002010BD2DE9F0410446884614
:105C90000026654F4FF4005503E0015500F046F82B
:105CA000761CB6EBC80F11D2FD6000F03FF8BD6066
:105CB000012006F0070100FA01F1F0083A68120528
:105CC000025D4CBF114322EA0101E6E7BDE8F08125
:105CD0002DE9F84380468946DFF8F46C03220B2156
:105CE0003046FCF703FA00254FF400674FF40054E8
:105CF00005E000F01BF8346100F018F86D1CB5EBFE
:105D0000C90F0CD27461E80810F80800012105F0F1
:105D100007029140084214BF37617761E9E73822F2
:105D20000B213046BDE8F843FCF7E0B90020FCF752
:105D3000A2BB10B5002815D100F01EF8032200F018
:105D400039F800F013F800F036F84FF400602061E5
:105D500003220B2100F02FF803480178491C017041
:105D6000002010BD012010BD864300204FF40050DC
:105D7000206103220D217047DFF8544C4FF48060FE
:105D80006061704710B5002812D100F07FFAFCF76F
:105D90003BFBDFF83C4C382200F00CF838220B219A
:105DA00000F009F804220D2100F005F8002010BDD4
:105DB000012010BD0A212046FCF798B970B582B0C9
:105DC00000280DD100A9DFF80C2CD26E1268904784
:105DD000002805D1BDF8000040F20971884201D3C6
:105DE000012076BD00F031FA0A20FCF768FB072499
:105DF0004FF48065DFF8D86B35610120FCF73BFB81
:105E000075610120FCF737FB641EF5D13561642014
:105E1000FCF755FB38220B213046FCF767F90020D0
:105E200076BD0000E4010020080C014080B50B465F
:105E30001146002804D11846FFF726FF002002BDB6
:105E4000012002BD80B50B461146002804D118463A
:105E5000FFF73EFF002002BD012002BDF0B583B078
:105E600016461F46089C099D18BB8DF80110284650
:105E7000451E80B208B9022017E001210DF1010092
:105E8000FFF726FF012100A8FFF7FEFE37B19DF8BE
:105E900000003840B84208BF002006D0002CE6D0F1
:105EA0009DF800002042E2D1012006B130700020B0
:105EB000FEBD0120FEBDF8B50446DFF8145B1020DE
:105EC00068610322042100F046F84FF400466E6139
:105ED00003220F2100F03FF804220E2100F03BF8CE
:105EE0004FF400576F6103220D2100F034F8322087
:105EF000FCF7E5FA102028612E612F614FF400664F
:105F000004B34FF480646C6103220A2100F023F88B
:105F10002E61032200F01EF800F066F92C6100F0FB
:105F200063F96E6100F060F96C6100F05DF92C615D
:105F300000F05AF9382200F00DF80120BDE8F240D7
:105F4000FCF7BDBA2E6138220B212846BDE8F84087
:105F5000FCF7CCB80B212846FCF7C8B8DFF8941D35
:105F60004FF40042002814BF0A604A6070470000E6
:105F700000000240083800402DE9F84F82460D46E7
:105F8000DFF8746D706800F4004B4FF000080120DA
:105F9000691E00FA01F94FF400544FF4004713E072
:105FA000012D04BF1020B060F4604FEA4A0A4FEAA6
:105FB000480800F0A4F8B46000F0A1F8306840048C
:105FC00048BF48F001086D1EEDB22DB11AEA090F65
:105FD00014BFB760F760E3E7BBF1000F14BFB76011
:105FE000F760F46000F08BF8B46000F088F81020DF
:105FF000F060F46000F083F8B46000F080F8404690
:10600000BDE8F28F00300140F8B504460D46DFF8D8
:10601000E46C102030604FF40057776000F06FF8A8
:10602000376000F06CF810207060776000F067F85F
:10603000376000F064F8776000F061F8376000F0D6
:106040005EF829462046BDE8F44095E7010018BFF8
:1060500001210846704710B5002811D1DFF88C4D9A
:106060004FF4806020603220FCF705FA1020206099
:106070004FF4004020604FF400502060002010BD1D
:10608000012010BD80B5002804D10846FFF713FF9A
:10609000002002BD012002BD2DE9F0410C4615464D
:1060A00000B90CB9012024E094F80080DFF8447CAA
:1060B000102038604FF4005600F020F83E6000F0E9
:1060C0001EF800F01BF83E6000F019F81020786010
:1060D00000F014F83E6000F012F800F00FF83E6097
:1060E00000F00DF808214046FFF746FF05B120708B
:1060F0000020BDE8F08100000C3001407E600020EF
:10610000FCF7B9B938B50C4611461D46002801D137
:10611000002C01D1012032BD2068FFF775FF002D52
:1061200018BF2060002032BD80B5002804D1084689
:10613000FFF714FF002002BD012002BD10B50C4680
:1061400000280ED107E00120FFF708FFFFF7D7FF77
:106150000020FFF703FF2046441E80B20028F2D142
:1061600010BD012010BD70B5002839D1DFF8844B77
:106170004FF4004020601020206007264FF40055A7
:106180002560FFF7BCFF6560FFF7B9FF761EF7D10A
:1061900010206060FFF7B3FF2560FFF7B0FF10200D
:1061A0002060FFF7ACFF00F01DF8102020600520F4
:1061B000FCF761F900F016F8102020600726256032
:1061C000FFF79DFF6560FFF79AFF761EF7D110205D
:1061D0006060FFF794FF2560FFF791FF002070BD1E
:1061E000012070BD102060600120FCF768B92DE926
:1061F000F84F894616469B460A9C0B9A0C9908BB99
:106200004FF4004801B14046104300F40041012919
:10621000B4BF0025012547047F0CDFF8D8AA04E0AD
:106220001DB1CAF80480CAF800803846471E80B203
:1062300040B121464846FFF7E7FE30405845EFD1D0
:10624000002000E00120BDE8F28F10B5DFF8440C1B
:10625000006880B241F6C8114843DFF83C4CC112D7
:1062600000EB11500001000CB0F5E16F0AD220786C
:1062700040B9DFF85C074FF48071416103220821C7
:10628000FBF734FF2078401C207010BDDFF8080CAD
:10629000017801B9704780B5491E0170C9B229B9AA
:1062A00004220821DFF82807FBF720FF01BD10B505
:1062B00000281DD1DFF8E04B207800B960706078CD
:1062C00040F6E442914207D1002803D101206070DA
:1062D000FFF7BBFF002010BD002909D10028F9D02D
:1062E0000020607020780028F4D0FFF7CFFFF9E796
:1062F000012010BD19B1DFF8DC06408C08800020B9
:106300007047000044000240580002403000024044
:1063100044F25061884228BF002022D242F2283144
:10632000884228BF01201CD241F29411884228BF24
:10633000022016D240F6CA01884228BF032010D29C
:1063400040F26541884228BF04200AD240F233213E
:10635000884228BF052004D2B0F58D7F2CBF0620CF
:106360000720C006000E7047010018BF0121084633
:10637000704710B5002817D1DFF8200BFCF7FDFBA4
:1063800000F014F8FBF7B2FE04220E212046FBF7C2
:10639000ADFE04220F212046FBF7A8FEFCF7C6FE47
:1063A000FCF7B8FB002010BD012010BDDFF820462F
:1063B00004220D21204670470038004000080140AB
:1063C0002DE9FC4714460A9A002852D1A0064CBF7A
:1063D00002240024980900F0010510064CBF002695
:1063E00080264FF47A7A0AFB01F8DFF8B09ADFF8DA
:1063F000E075DFF8880CDFF8881C88451FD3002182
:106400000170FCF797FEFCF785FB0B2200F03CF8CF
:106410000B220E2100F039F80B220F2100F035F885
:10642000B8FBFAF080B2FFF773FF024601950094C3
:1064300033464FF482714846FBF774FF17E00121A1
:106440000170DFF8601DB1FBF8F141604846FCF7D0
:1064500094FB4FF400507861032200F015F80322FA
:106460000F2100F012F838220E2100F00EF8002063
:1064700000E00120BDE8F687A1510008D7530008CD
:10648000355200080C3800400D213846FBF72EBE6F
:106490002DE9FE4F08B901B10AB9012047E00024F7
:1064A000DFF87C5CDFF850884FF40049DFF8CC6BF4
:1064B0000BE0A5F804A02888C007FCD5AF88288881
:1064C0000006FCD401982754641CBDF808008442DF
:1064D0002CDA009814F800A030780028E9D00027C2
:1064E0004FF0080B5FEA0A604CBFC8F80890C8F884
:1064F0000C904FEA4A0A00F01CF84FF40050C8F81C
:10650000080000F016F87F00D8F80000400448BFEB
:1065100047F0010700F00DF84FF40050C8F80C00E8
:1065200000F007F8BBF1010BDCD1CBE70020BDE8A0
:10653000FE8F3079FBF79FBFF0B500220025DFF812
:10654000E43B4FF4005409E000F020F8A5EBC60E40
:106550000CFA0EFC27EA0C0737546D1C8D420FDA3B
:106560009C60DC601E687606EED500F00FF8A5EBA7
:10657000C60E0CFA0EFC4CEA07073754521CECE727
:106580002CE00000DF52000888430020AE1005EB2D
:106590005676F610375C4FF0010C7047F0B50022CC
:1065A00000254FF40053DFF84C474FF0010C04E096
:1065B00010266660236063606D1C8D420EDAAE109B
:1065C00005EB5676F610375CA5EBC6060CFA06F618
:1065D0003742EDD010262660521CEBE702F0010096
:1065E000F0BD2DE9F04704468A4600260027DFF873
:1065F00008874FF40059DFF8285C07E000F01AF82C
:1066000091430155A888FBF736FF7F1C574510DAE8
:10661000C8F80890A888FBF72EFFC8F80C90D8F8A7
:1066200000004006EAD500F005F811430155761C3C
:10663000E8E736E0B81007EB5070C010015D0122AA
:10664000A7EBC0039A4070472DE9F0478046894682
:10665000002600274FF40054DFF89856DFF8C0AB4F
:106660000CE010206860BAF80400FBF704FF2C600F
:10667000BAF80400FBF7FFFE6C607F1C4F4510DA90
:10668000B81007EB5070C01010F808100122A7EBEB
:10669000C00002FA00F00142E3D010202860761C0E
:1066A000E1E706F00100BDE8F0872DE9F14185B092
:1066B0000C4600F004080026DFF8647BDFF8C459BC
:1066C00000F07FF8082105A8FA68904700F080F8EC
:1066D00020688DF800002068000A8DF8010020680D
:1066E000000C8DF802002068000E8DF80300BA68D7
:1066F000B8F1000F15D0032102A89047202100A86F
:10670000BA6890478DF80400012103A8BA68904741
:1067100000F051F8397803A8BA68904700F051F8B2
:1067200012E03878C11C89B202A8904700F049F8FD
:10673000202100A8FA6890478DF80400012101A8E3
:10674000FA68904700F037F800200490082104A868
:10675000FA68904700F03CF89DF800009DF80110A1
:1067600040EA01209DF8021040EA01409DF8031024
:1067700040EA01602060029800F0070002900128C2
:1067800004D0022809D004280ED00FE09DF80400A0
:10679000C00754BF012011200AE0761C7888B6B2E9
:1067A00086428DD3422003E0842001E040F02000A7
:1067B00006B0BDE8F0819DF8041040188DF8040083
:1067C000704710202861032204212846FBF78EBC65
:1067D000042204212846FBF789BC010018BF0121CF
:1067E0000846704710B5002803D100F024F80422B1
:1067F00028E0012010BD10B500281AD1DFF8200ACA
:106800000F2938BF0170428033B1DFF8081CDFF870
:10681000082C5B1E838003E0DFF8001CDFF8002DEE
:10682000C260816000F007F84FF40050206103223D
:1068300008E0012010BDDFF84C4804220421204666
:10684000FBF754BC0D212046FBF750FC002010BD87
:1068500070B50C461546002816D1002C14D05C4E9D
:1068600010203061032204213046FBF73FFC29460B
:106870002046DFF8AC29D268904704220421304634
:10688000FBF734FC002070BD012070BD80B50B46C5
:106890001146002808D1002B06D01846DFF88029C1
:1068A00092689047002002BD012002BD38B50C4619
:1068B00011461D46002801D1002901D1012032BD19
:1068C0002046FFF7F2FE002D18BF2870002032BDD1
:1068D000DFF8500C0178002900D0704710B592B055
:1068E000012101700220FCF715F9DFF83C4C20462D
:1068F000FBF7EFFF07A8FCF776F8DFF8300C0790FE
:106900001020099000200A900B9080200C904FF4EA
:1069100080700D904FF480600E9000200F904FF427
:10692000805010900020119007A92046FCF73FF8F6
:1069300001212046FCF764F800A8FCF717FB00F0E3
:106940003CF8FCF743FA03A8FCF719FB6020ADF80C
:106950000C000120ADF80E000020ADF8120002205E
:10696000ADF8140003A92046FCF775FA00F017F8FB
:10697000FCF73AFB00F0A9F801212046FCF712FBD6
:1069800001212046FCF718FB0121DFF8D40CFCF7AD
:1069900040F800F00BF8FBF7A9FB12B010BD208BFC
:1069A00040F008002083012120467047DFF8D4061C
:1069B000102101610F2204217047002000900190F6
:1069C0008DF80800DFF89C4C00A9204670470000B5
:1069D000000C014000000020F0B58FB0DFF8880CFB
:1069E0000021C186012100F050FB01210420FCF7A9
:1069F00091F8DFF8787C3846FBF76BFF03A8FBF7CC
:106A0000F2FFDFF86C0C00F066F84FF48074099424
:106A10004FF480650A9500200B904FF4005600F06B
:106A20004EF801213846FBF7EBFFDFF8487C38468B
:106A3000FBF74FFF03A8FBF7D6FFDFF83C0C00F095
:106A40004AF809940A9500200B9000F038F80121CB
:106A50003846FBF7D5FF00A8FCF79BFA0420ADF8F9
:106A600000000020ADF802000220ADF80400002074
:106A7000ADF80600ADF80800DFF8644D00A9204627
:106A8000FCF740FA50212046FCF7A9FA04212046E1
:106A9000FCF7B4FA80212046FCF7B4FA012229461B
:106AA0002046FCF794FA00F010F800202085012021
:106AB000A08201462046FCF775FA0FB0F0BD0C9697
:106AC0000D9003A93846FBF772BF01224FF4007105
:106AD0002046FCF77CBA03900020059006900790B2
:106AE00080200890704738B5DFF8904B606C400804
:106AF000400060640A20A064DFF86C0B2065606CC5
:106B000040F001006064DFF87C5500F05BF84FF462
:106B10007A70FBF7B0FC00F05CF800F04FF800F082
:106B200051F800F04BF800F054F800F047F800F08E
:106B300049F800F043F800F04CF800F03FF800F09E
:106B400041F800F03BF800F044F800F037F800F0AE
:106B500039F800F033F800F03CF800F02CF800F0C1
:106B600031F800F028F800F034F800F024F800F0D4
:106B700029F800F020F800F02CF800F01CF800F0E4
:106B800021F800F018F800F024F800F014F800F0F4
:106B900019F800F010F800F01CF8DFF8280D216853
:106BA000890401D4401EFAD14FF400516160401EA7
:106BB0008041C00F32BDFA20FBF75DBC4FF4FA7084
:106BC000FBF759BC40206861032206212846FBF7E9
:106BD0008DBA382206212846FBF788BA30B54821FD
:106BE00091FBF0F2114643085043C0F14800834244
:106BF000B8BF491CDFF8840A426C52085200426454
:106C000002228264DFF8602A0265436C43F00103CC
:106C10004364DFF86C3C1C8B89B2CD016D1C1D8375
:106C200001251D80C9011183002151831D80C16E82
:106C300049084900C1660221016702F11801816714
:106C4000C16E41F00101C16601688902FCD54FF4B3
:106C500000114160DFF86C1C0568AD0401D4491EC9
:106C6000FAD14FF4005545601C830120188011B102
:106C70005088D086002030BD30B5DFF8EC39DC8E8E
:106C80006CB9482494FBF0F4A5B24443C4F1480421
:106C9000B4EB500FA4BF6D1CADB2EC01A4B204FB69
:106CA00001F0811100EB5161C9110D46A0EBC1113A
:106CB0004029A8BF6D1C1D8604FB02F0811100EB6A
:106CC0005161C9110A46A0EBC1114029A8BF521C4D
:106CD0005A86188E598E08189886DFF8A41B80B241
:106CE00000EBD0020A8301220A8040089886002027
:106CF00030BD0000100C0140080C01402DE9F04FA0
:106D0000DFF8643903F1180801F10309DFF86C5961
:106D100003E092B2002A5CD0521E6F6C7F087F00A5
:106D20006F64C5F848902B656F6C47F001076F647E
:106D30001F8E28F8027B00244E1E00E0761EB3F85A
:106D400032A076B2002E0AD440FA06FB5FEACB7B73
:106D500046BF28F802AB641C28F8027BEEE7E40784
:106D60004CBF28F802AB28F8027B002728F8027BEA
:106D7000DFF80C7B01243C80EF6E7F087F00EF661C
:106D8000C5F8709003F11807AF67EF6E47F0010781
:106D9000EF662F68BF02FCD54FF400176F60DFF875
:106DA000BCEC2F68BF0402D4BEF1010EF9D14FF440
:106DB00000576F606F6C7F087F006F640A27AF64B5
:106DC0009F1C2F656F6C47F001076F64BEF1000FC9
:106DD00001D1012007E0B3F834E003EB4107BF889D
:106DE000BE4596D30020BDE8F08F0000140C014092
:106DF000F0B50021DFF8CC3ADFF880281468A4044D
:106E000001D45B1EFAD14FF4005454600170002B82
:106E10003CD0DFF85448A58E6388AB4236D20023BD
:106E200004EB4306B688AE4207D206780127C3F1C9
:106E3000070C07FA0CF73E4306705B1C082BEFD3D8
:106E4000506C4008400050640B2090641465506CF6
:106E500040F001005064608E20836183DFF8200AD7
:106E600001230380D06E40084000D06602201067E6
:106E700004F118009067D06E40F00100D0661068F1
:106E80008002FCD54FF40010506000E0012108465C
:106E9000F0BD00004C240140B84300200038004001
:106EA0002DE9F04782B00D46164605B10EB9012016
:106EB00046E00027044611E01422082108EB0700F1
:106EC000805DFFF71BFF0028F1D108F1010A5FFA8E
:106ED0008AF8C845F0DB4C444F44BFB2AF422EDACB
:106EE000E81BFF28CCBF4FF0FF095FFA80F98DF84F
:106EF0000040200A8DF80100200C8DF80200200EC1
:106F00008DF80300142203210220FFF7F7FE00286A
:106F1000CDD1002208214846FFF7F0FE0028C6D157
:106F200000F06CF80028C2D100F062F80028BED151
:106F300000F059F80028BAD14FF0000AC7E7002046
:106F4000BDE8F6872DE9F04782B006460C4690462C
:106F500014B1B8F1000F01D1012042E0002710E088
:106F6000082109EB07004044FFF742FF0028F3D156
:106F700009F1010A5FFA8AF9A945F1DBAE19EF19A7
:106F8000BFB2A7422CDAE01BFF28CCBFFF25C5B259
:106F90008DF80060300A8DF80100300C8DF8020089
:106FA000300E8DF80300142203210120FFF7A6FE06
:106FB0000028D1D1002208212846FFF79FFE002893
:106FC000CAD100F01BF80028C6D100F011F8002843
:106FD000C2D100F008F80028BED14FF0000AC9E77E
:106FE0000020BDE8F687002208210098C0B285E69F
:106FF0000022082100980004000E7FE600220821EC
:1070000000980002000E79E6010018BF0121084631
:10701000704780B500282FD1042204211948FBF7BE
:1070200065F80021DFF83806FBF7F3FCDFF83406DB
:10703000FBF7EEFD00210220FBF76CFDDFF8E80412
:10704000FBF747FC00F020F8DFF89407FBF7E0FDC2
:1070500000210420FBF75EFDDFF81006FBF739FC8A
:10706000DFF81006FBF735FC00F00EF8DFF8B4048B
:1070700000210170084602BD012002BDC843002066
:10708000E0220200000C014000210120FBF72EBD90
:1070900070B50C4615461E4638B9FFF719FC324646
:1070A00029462046FFF7E8FD00B1012070BD80B5FC
:1070B00020B914220321FFF721FE00B1012002BDF7
:1070C00010B5144628B90A4621461846FFF7E8FECF
:1070D00000B1012010BD10B5144628B90A4621465A
:1070E0001846FFF72FFF00B1012010BD80B518B979
:1070F0000846FFF773FD00B1012002BD80B520B93D
:10710000FFF76AFCFFF7EFFC00B1012002BD28B9D0
:10711000DFF8FC0C012181730020704701207047CB
:1071200008380040080C014080B5002807D1FBF763
:10713000CAF9DFF8DC0C00218173002002BD0120B8
:1071400002BD2DE9F0410D4616461F46069C88B942
:10715000DFF8C08C08F1240000F0E9F808F13400F1
:1071600000F0E5F823463A4631462846FBF7DFF9BA
:10717000002000E00120BDE8F08110B5002801D119
:10718000002901D1012010BDDFF88C3C05E01C88EE
:107190002406FCD5445C9C80401C80B29042F6D30F
:1071A000002010BD90D0030070B50C461546002895
:1071B00013D1002C11D0DFF85C6C06F1340000F024
:1071C00043F8A84209D32A46214606F1340000F0CC
:1071D00075F8854201D1002070BD012070BD38B521
:1071E0000C46002819D1002C17D0DFF8285C05F1D7
:1071F000240000F023F8206005F1240000F024F8BA
:10720000606005F1340000F019F8A06005F1340069
:1072100000F01AF8E060002032BD012032BD00000D
:107220001402002080B5FBF74AF9002002BD80B5AA
:10723000FBF721F9002002BD0020704710B544681B
:1072400000F002F8201A10BDC16882688A4201D39A
:10725000501A70474068401A1018704770B50446BD
:107260000E461546FFF7EAFF854201D3002070BDA8
:10727000A168206808186268521AAA4210D23146E2
:1072800002F02AFAA06861686A1A8218081A81193D
:10729000206802F021FAA0686168691A08180AE0FB
:1072A0002A46314602F018FAA0682818A0606168E2
:1072B000884201D10020A060284670BDF8B5044680
:1072C0000E461746FFF7C0FF0546BD4288BF3D4644
:1072D000E068216841186268121AAA4210D230464A
:1072E00002F0FAF9E0686368E91A42182168181A8E
:1072F000801902F0F1F9E0686168691A08180AE07B
:107300002A46304602F0E8F9E0682818E060616833
:10731000884201D10020E0602846F2BDC168826841
:107320008A4201D3501A70474068401A70470021C2
:10733000C1608160704738B5DFF8E00A0178DFF896
:10734000D44A102959DAA26D00294BD0012943D023
:1073500002293DD00F295BD145F2AA5441788078AB
:1073600041EA0020A04253D101214FF0C050FBF769
:10737000D1FBDFF8AC0A0121016000200090DFF8AA
:10738000A40A00900098001D009000980460DFF8A7
:10739000F40C01600021416003210160DFF8E84C3A
:1073A0004FF48055656103220C212046FAF79EFEBA
:1073B0000A20FBF784F82561DFF8D00C016801F49E
:1073C000E061DFF8CC2C11430160BFF34F8FFEE783
:1073D0001521017001200EE0618C0170090A4170D5
:1073E000022008E030214170312204F17C01801C30
:1073F00002F072F93320E06531BD802908DAA06718
:107400004FF0FF3184F82010A16D89B201F072FDB8
:1074100031BD0000E36500084966000839650008D1
:1074200070B590B0DFF8EC49DFF8686CDFF8E05930
:10743000687C002833D030684006E87B0AD508B164
:1074400000F076F80320FCF7A4FC064632464FF421
:10745000807109E008B100F06BF80320FCF7A6FC8E
:10746000064632464FF4A07100A8FCF73BFB002E05
:1074700054D004F12400FFF7E1FEFF289CBF002058
:10748000E873324600A904F12400FFF7E7FEB0429A
:1074900044D2DFF8040C4FF4004101603EE0A06DDF
:1074A000002803D5012060650020A06400F040F8AA
:1074B0003068DFF86859400607D50320FCF776FCF2
:1074C000064632464FF4A07106E00320FCF761FC4B
:1074D000064632464FF48071A06C4019FCF702FB5F
:1074E000E6B1A06C78B96878A97800EB012029781A
:1074F000102905D20A2908BFC01D03D0A66502E0E5
:10750000802900D2A065A06C3018A064A06DA16C89
:10751000814203D3A06D40F00040A06510B070BD63
:107520009D650008D44300206C00024034040040F4
:1075300001210320FCF746BC38B5DFF8D848206DA0
:10754000401E2065DFF8BC0C00684004206D26D585
:10755000002843D002210220FCF734FC206D0228D1
:107560003CD3E06CA8B1E06C41282CBF4025E56C11
:10757000AAB28021606CFCF79EFAAAB20221022016
:10758000FCF7BAFBE06C401BE064606C2818606498
:1075900031BD00F024F8BDE83840FCF7ADBB002851
:1075A0001CD002210220FCF70DFC206D022815D30F
:1075B000E06C78B1E06C41282CBF4025E56CAAB2A4
:1075C000C021606CFCF777FAAAB202210220FCF716
:1075D000B7FBD7E700F003F8FCF7B2FB31BD0022A0
:1075E00002210220704710B5DFF81C0C0021182280
:1075F000131813F8013C1B09DFF8104C0C190A2B67
:1076000034BF30333733A370521E92B282B1131895
:1076100013F8013C03F00F030A2B34BF3033373328
:107620002371521E401C091D89B292B2002ADFD17B
:10763000DFF8DC07016A00228A72DFF8481A0122AB
:107640000A6000220A604A604FF4E0520A60002299
:107650004A604FF43C4202830A600021C16210BDBF
:1076600000081A00000400402843002044000240A3
:107670003808004008000240340800400000024082
:1076800070B5DFF88C47206A00218172206A802162
:107690004172206A0021C172DFF8D45C00202865A5
:1076A0004FF40071FCF72CFA10210020FCF732FA9D
:1076B000286D80B2DFF8BC1C682241F810207021D0
:1076C0000020FCF77EFA48F28006286848F68F61B1
:1076D000084030432860DFF8A00C90F82C10002000
:1076E000FCF785FA28684BF68F71084080F440500B
:1076F000304328604FF4C0610120FCF701FA782183
:107700000120FCF75EFA20210120FCF703FA00219A
:107710000120FCF710FA00210220FCF7F1F9022009
:10772000FCF720FAC02280210220FCF77EFA00221A
:1077300002210846FCF790FA0220FCF720FA02200A
:10774000FCF72EFA00210220FCF7F5F92021022097
:10775000FCF7E0F900210320FCF7D2F90320FCF745
:1077600001FA4FF4A0724FF480710320FCF75DFA28
:10777000402201210320FCF76FFA0320FCF7FFF9F8
:107780000320FCF70DFAE86848F68F71084048F2CC
:10779000C0010843E8604FF440510320FCF7CBF9E7
:1077A00000210320FCF7B6F90020FCF75BF801206C
:1077B000E06270BDDFF8E408016A897A09B1052149
:1077C000C1627047DFF8D4080421C1627047704776
:1077D000DFF8C808817C202904BF0021817470472C
:1077E00000080040704780B50021DFF82426136AA6
:1077F000212807D1187800F07F0021280FD1DFF869
:10780000881C0AE020280AD1187800F07F0021287F
:1078100008BFDFF8781C20209074080001D10220F6
:1078200002BD9961002058828847002002BD10B532
:10783000DFF86848216A0A7802F07F03412B06D1FD
:10784000002813D1FAF73FFE0020607410BD02F04B
:107850007F02212A0AD1022801D0232801D1002049
:1078600010BD222804BFC8782074F8D0022010BDB3
:10787000DFF81C1CFBF7AABDDFF8181CFBF7A6BD40
:1078800014040040DFF814180A6AD278062A01D3DB
:107890000020704701EBC2016831FBF797BD00295A
:1078A00001D0022070470228FBD200207047DFF889
:1078B000EC17002804D1086A0821018200207047D3
:1078C00008467047FFFF0F0010B5DFF84445002859
:1078D00003D1206A0821FBF79BBC01206074DFF80C
:1078E000040D4FF4004101600820A07123796279F2
:1078F00008212068FAF71BFE204610BDDFF8840738
:1079000001684FF6FB72114001604FF43C41016089
:107910007047000010B5DFF8D04C072818BF207062
:10792000DFF86007217805292BD8DFE801F003068E
:107930000A0E151FFFF7E2FF23E0FFF7DFFF042029
:1079400020E00220607003201CE06078401E607020
:107950006078002817D1F2E7016841F0100189B280
:107960000160052020700A20607010BD6178491EFA
:1079700061706178002906D101684FF6EF721140FD
:1079800001600620207010BD2DE9F04182B0044650
:1079900088460020DFF87C5406E0E96D4A1CEA6561
:1079A00006220A54F01980B2404554DA015D01F014
:1079B000F801025D02F0070203195E789B7846EA3F
:1079C0000326C71CBFB2A86F31B1082916D01029F1
:1079D0000DD030291DD0E0E7002AE96D02BF4A1C16
:1079E000EA650022DDD04A1CEA650122D9E7002AB7
:1079F000E96D02BF4A1CEA650022F3E7002AE96D3F
:107A000002BF4A1CEA650022CBD04A1CEA6501226B
:107A1000C7E700A90020EA6E126890470028E86DC9
:107A200010D1411CE965A96F00224254E86DBDF8F0
:107A300000204254E86DA96F4018BDF80010090AF3
:107A4000417004E0411CE965A96F01224254E86DD0
:107A5000801CE865A6E7BDE8F3810000FFFF0F008A
:107A60002DE9F24F84B004460020DFF8A87308E047
:107A7000F86D411CF965B96F0522425409EB060007
:107A800080B2BDF81010884280F29880015D01F04C
:107A9000F801025D02F0070802195378927843EA70
:107AA0000229C61CB6B2FA6E02F2541331B108298B
:107AB00015D028291AD058295FD0D9E74046D2F8E6
:107AC000541188470028F86D04D1411CF965B96F3D
:107AD0000022D2E7411CF965B96F0122CDE740468B
